{
  "contractName": "main",
  "abi": [
    {
      "constant": true,
      "inputs": [
        {
          "name": "",
          "type": "uint256"
        }
      ],
      "name": "prescriptions",
      "outputs": [
        {
          "name": "emmiter",
          "type": "address"
        },
        {
          "name": "medication",
          "type": "string"
        },
        {
          "name": "dose",
          "type": "uint256"
        },
        {
          "name": "refill",
          "type": "uint256"
        }
      ],
      "payable": false,
      "stateMutability": "view",
      "type": "function",
      "signature": "0x31dfc91b"
    },
    {
      "constant": true,
      "inputs": [],
      "name": "prescriptionId",
      "outputs": [
        {
          "name": "",
          "type": "uint256"
        }
      ],
      "payable": false,
      "stateMutability": "view",
      "type": "function",
      "signature": "0x3df9d2af"
    },
    {
      "constant": true,
      "inputs": [
        {
          "name": "",
          "type": "address"
        }
      ],
      "name": "pharmacies",
      "outputs": [
        {
          "name": "",
          "type": "bool"
        }
      ],
      "payable": false,
      "stateMutability": "view",
      "type": "function",
      "signature": "0x76fe8830"
    },
    {
      "constant": true,
      "inputs": [
        {
          "name": "",
          "type": "address"
        }
      ],
      "name": "doctors",
      "outputs": [
        {
          "name": "",
          "type": "bool"
        }
      ],
      "payable": false,
      "stateMutability": "view",
      "type": "function",
      "signature": "0xa9583c22"
    },
    {
      "inputs": [],
      "payable": false,
      "stateMutability": "nonpayable",
      "type": "constructor",
      "signature": "constructor"
    },
    {
      "constant": false,
      "inputs": [
        {
          "name": "_doctor",
          "type": "address"
        }
      ],
      "name": "addDoctor",
      "outputs": [],
      "payable": false,
      "stateMutability": "nonpayable",
      "type": "function",
      "signature": "0x4780468f"
    },
    {
      "constant": false,
      "inputs": [
        {
          "name": "_pharmacy",
          "type": "address"
        }
      ],
      "name": "addPharmacy",
      "outputs": [],
      "payable": false,
      "stateMutability": "nonpayable",
      "type": "function",
      "signature": "0xafd675f8"
    },
    {
      "constant": true,
      "inputs": [
        {
          "name": "_doctor",
          "type": "address"
        }
      ],
      "name": "seeDoctor",
      "outputs": [
        {
          "name": "",
          "type": "bool"
        }
      ],
      "payable": false,
      "stateMutability": "view",
      "type": "function",
      "signature": "0x4b97b4ae"
    },
    {
      "constant": true,
      "inputs": [
        {
          "name": "_pharmacy",
          "type": "address"
        }
      ],
      "name": "seePharmacy",
      "outputs": [
        {
          "name": "",
          "type": "bool"
        }
      ],
      "payable": false,
      "stateMutability": "view",
      "type": "function",
      "signature": "0xc286df1d"
    },
    {
      "constant": false,
      "inputs": [
        {
          "name": "_doctor",
          "type": "address"
        },
        {
          "name": "_medication",
          "type": "string"
        },
        {
          "name": "_dose",
          "type": "uint256"
        },
        {
          "name": "_refill",
          "type": "uint256"
        }
      ],
      "name": "addPresciption",
      "outputs": [],
      "payable": false,
      "stateMutability": "nonpayable",
      "type": "function",
      "signature": "0x1f9483ef"
    },
    {
      "constant": false,
      "inputs": [
        {
          "name": "_prescriptionId",
          "type": "uint256"
        },
        {
          "name": "_pharmacy",
          "type": "address"
        }
      ],
      "name": "giveDrug",
      "outputs": [],
      "payable": false,
      "stateMutability": "nonpayable",
      "type": "function",
      "signature": "0x54b3b5db"
    }
  ],
  "bytecode": "0x608060405234801561001057600080fd5b50336000806101000a81548173ffffffffffffffffffffffffffffffffffffffff021916908373ffffffffffffffffffffffffffffffffffffffff160217905550610c86806100606000396000f3fe6080604052600436106100a4576000357c0100000000000000000000000000000000000000000000000000000000900463ffffffff1680631f9483ef146100a957806331dfc91b146101a55780633df9d2af1461029a5780634780468f146102c55780634b97b4ae1461031657806354b3b5db1461037f57806376fe8830146103da578063a9583c2214610443578063afd675f8146104ac578063c286df1d146104fd575b600080fd5b3480156100b557600080fd5b506101a3600480360360808110156100cc57600080fd5b81019080803573ffffffffffffffffffffffffffffffffffffffff1690602001909291908035906020019064010000000081111561010957600080fd5b82018360208201111561011b57600080fd5b8035906020019184600183028401116401000000008311171561013d57600080fd5b91908080601f016020809104026020016040519081016040528093929190818152602001838380828437600081840152601f19601f8201169050808301925050505050505091929192908035906020019092919080359060200190929190505050610566565b005b3480156101b157600080fd5b506101de600480360360208110156101c857600080fd5b81019080803590602001909291905050506106ca565b604051808573ffffffffffffffffffffffffffffffffffffffff1673ffffffffffffffffffffffffffffffffffffffff16815260200180602001848152602001838152602001828103825285818151815260200191508051906020019080838360005b8381101561025c578082015181840152602081019050610241565b50505050905090810190601f1680156102895780820380516001836020036101000a031916815260200191505b509550505050505060405180910390f35b3480156102a657600080fd5b506102af6107b2565b6040518082815260200191505060405180910390f35b3480156102d157600080fd5b50610314600480360360208110156102e857600080fd5b81019080803573ffffffffffffffffffffffffffffffffffffffff1690602001909291905050506107b8565b005b34801561032257600080fd5b506103656004803603602081101561033957600080fd5b81019080803573ffffffffffffffffffffffffffffffffffffffff16906020019092919050505061086e565b604051808215151515815260200191505060405180910390f35b34801561038b57600080fd5b506103d8600480360360408110156103a257600080fd5b8101908080359060200190929190803573ffffffffffffffffffffffffffffffffffffffff1690602001909291905050506108c4565b005b3480156103e657600080fd5b50610429600480360360208110156103fd57600080fd5b81019080803573ffffffffffffffffffffffffffffffffffffffff169060200190929190505050610a21565b604051808215151515815260200191505060405180910390f35b34801561044f57600080fd5b506104926004803603602081101561046657600080fd5b81019080803573ffffffffffffffffffffffffffffffffffffffff169060200190929190505050610a41565b604051808215151515815260200191505060405180910390f35b3480156104b857600080fd5b506104fb600480360360208110156104cf57600080fd5b81019080803573ffffffffffffffffffffffffffffffffffffffff169060200190929190505050610a61565b005b34801561050957600080fd5b5061054c6004803603602081101561052057600080fd5b81019080803573ffffffffffffffffffffffffffffffffffffffff169060200190929190505050610b17565b604051808215151515815260200191505060405180910390f35b600115156105738561086e565b15151415156105ea576040517f08c379a000000000000000000000000000000000000000000000000000000000815260040180806020018281038252601a8152602001807f4f4e4c5920444f43544f52532043414e2050524553435249424500000000000081525060200191505060405180910390fd5b6001600081548092919060010191905055506080604051908101604052808573ffffffffffffffffffffffffffffffffffffffff1681526020018481526020018381526020018281525060026000600154815260200190815260200160002060008201518160000160006101000a81548173ffffffffffffffffffffffffffffffffffffffff021916908373ffffffffffffffffffffffffffffffffffffffff16021790555060208201518160010190805190602001906106ac929190610b6d565b50604082015181600201556060820151816003015590505050505050565b60026020528060005260406000206000915090508060000160009054906101000a900473ffffffffffffffffffffffffffffffffffffffff1690806001018054600181600116156101000203166002900480601f01602080910402602001604051908101604052809291908181526020018280546001816001161561010002031660029004801561079c5780601f106107715761010080835404028352916020019161079c565b820191906000526020600020905b81548152906001019060200180831161077f57829003601f168201915b5050505050908060020154908060030154905084565b60015481565b6000809054906101000a900473ffffffffffffffffffffffffffffffffffffffff1673ffffffffffffffffffffffffffffffffffffffff163373ffffffffffffffffffffffffffffffffffffffff1614151561081357600080fd5b6001600460008373ffffffffffffffffffffffffffffffffffffffff1673ffffffffffffffffffffffffffffffffffffffff16815260200190815260200160002060006101000a81548160ff02191690831515021790555050565b6000600460008373ffffffffffffffffffffffffffffffffffffffff1673ffffffffffffffffffffffffffffffffffffffff16815260200190815260200160002060009054906101000a900460ff169050919050565b600115156108d182610b17565b151514151561096e576040517f08c379a000000000000000000000000000000000000000000000000000000000815260040180806020018281038252602e8152602001807f4f4e4c5920524547495354455220504841524d41435920414e44204d4f44494681526020017f5920505245534352495054494f4e00000000000000000000000000000000000081525060400191505060405180910390fd5b60006002600084815260200190815260200160002060030154905060008114156109f45760026000848152602001908152602001600020600080820160006101000a81549073ffffffffffffffffffffffffffffffffffffffff02191690556001820160006109dd9190610bed565b600282016000905560038201600090555050610a1c565b6002600084815260200190815260200160002060030160008154809291906001900391905055505b505050565b60036020528060005260406000206000915054906101000a900460ff1681565b60046020528060005260406000206000915054906101000a900460ff1681565b6000809054906101000a900473ffffffffffffffffffffffffffffffffffffffff1673ffffffffffffffffffffffffffffffffffffffff163373ffffffffffffffffffffffffffffffffffffffff16141515610abc57600080fd5b6001600360008373ffffffffffffffffffffffffffffffffffffffff1673ffffffffffffffffffffffffffffffffffffffff16815260200190815260200160002060006101000a81548160ff02191690831515021790555050565b6000600360008373ffffffffffffffffffffffffffffffffffffffff1673ffffffffffffffffffffffffffffffffffffffff16815260200190815260200160002060009054906101000a900460ff169050919050565b828054600181600116156101000203166002900490600052602060002090601f016020900481019282601f10610bae57805160ff1916838001178555610bdc565b82800160010185558215610bdc579182015b82811115610bdb578251825591602001919060010190610bc0565b5b509050610be99190610c35565b5090565b50805460018160011615610100020316600290046000825580601f10610c135750610c32565b601f016020900490600052602060002090810190610c319190610c35565b5b50565b610c5791905b80821115610c53576000816000905550600101610c3b565b5090565b9056fea165627a7a7230582070bd61355a08c720eb0d93297b5a66e8caa34242d62b4404e84dd4944f05dd960029",
  "source": "pragma solidity ^0.5.0;\n\ncontract main{\n\n  address goverment;\n  uint public prescriptionId;\n  struct prescription {\n    address emmiter;\n    string medication;\n    uint dose;\n    uint refill;\n  }\n\n  mapping (uint => prescription) public prescriptions;\n  mapping (address => bool) public pharmacies;\n  mapping (address => bool) public doctors;\n\n//owner of the contract has administration privileges\n  constructor() public{\n    goverment = msg.sender;\n  }\n\n//government gives permission\n  function addDoctor (address _doctor) public{\n    require(msg.sender == goverment);\n    doctors[_doctor] = true;\n  }\n  function addPharmacy (address _pharmacy) public{\n    require(msg.sender == goverment);\n    pharmacies[_pharmacy] = true;\n  }\n\n// checks if doctors and pharmacy have permission to prescribe\n  function seeDoctor (address _doctor) public view returns(bool){\n    return doctors[_doctor];\n  }\n  function seePharmacy (address _pharmacy) public view returns (bool){\n    return pharmacies[_pharmacy];\n  }\n\n//first checks if doctor allows, if so, it adds a prescription construct to the mapping\n  function addPresciption (address _doctor, string memory _medication, uint _dose, uint _refill) public{\n    require (seeDoctor(_doctor) == true, \"ONLY DOCTORS CAN PRESCRIBE\");\n    prescriptionId++;\n    prescriptions[prescriptionId] = prescription(_doctor, _medication, _dose, _refill);\n  }\n//pharmacy should be able to view, modify and destroy prescriptions.\n//we must register pharmacies addresses and give them permissions\n//to view they can just called the public mapping\n//to modify i gonna try to access the mapping\n//to destroy we need a new function\n//owner of the prescription is anyone who has it\nfunction giveDrug(uint _prescriptionId, address _pharmacy) public{\n  require (seePharmacy(_pharmacy) == true, \"ONLY REGISTER PHARMACY AND MODIFY PRESCRIPTION\");\n  uint refill = prescriptions[_prescriptionId].refill;\n    if (refill == 0){\n      delete (prescriptions[_prescriptionId]);\n    } else {\n      prescriptions[_prescriptionId].refill--;\n    }\n}\n\n}\n",
  "sourcePath": "/home/skamy/proyects/Smart-Prescription/contracts/main.sol",
  "compiler": {
    "name": "solc",
    "version": "0.5.0+commit.1d4f565a.Emscripten.clang"
  },
  "schemaVersion": "3.0.1",
  "updatedAt": "2019-01-16T19:53:27.182Z",
  "devdoc": {
    "methods": {}
  },
  "userdoc": {
    "methods": {}
  }
}