{
  "contractName": "main",
  "abi": [
    {
      "constant": true,
      "inputs": [
        {
          "name": "",
          "type": "uint256"
        }
      ],
      "name": "prescriptions",
      "outputs": [
        {
          "name": "emmiter",
          "type": "address"
        },
        {
          "name": "medication",
          "type": "string"
        },
        {
          "name": "dose",
          "type": "uint256"
        }
      ],
      "payable": false,
      "stateMutability": "view",
      "type": "function",
      "signature": "0x31dfc91b"
    },
    {
      "constant": true,
      "inputs": [],
      "name": "prescriptionId",
      "outputs": [
        {
          "name": "",
          "type": "uint256"
        }
      ],
      "payable": false,
      "stateMutability": "view",
      "type": "function",
      "signature": "0x3df9d2af"
    },
    {
      "inputs": [],
      "payable": false,
      "stateMutability": "nonpayable",
      "type": "constructor",
      "signature": "constructor"
    },
    {
      "constant": false,
      "inputs": [
        {
          "name": "_doctor",
          "type": "address"
        },
        {
          "name": "_medication",
          "type": "string"
        },
        {
          "name": "_dose",
          "type": "uint256"
        }
      ],
      "name": "addCounter",
      "outputs": [],
      "payable": false,
      "stateMutability": "nonpayable",
      "type": "function",
      "signature": "0xa03351d1"
    },
    {
      "constant": false,
      "inputs": [
        {
          "name": "_doctor",
          "type": "address"
        }
      ],
      "name": "addDoctor",
      "outputs": [],
      "payable": false,
      "stateMutability": "nonpayable",
      "type": "function",
      "signature": "0x4780468f"
    }
  ],
  "bytecode": "0x6080604052600060025534801561001557600080fd5b50336000806101000a81548173ffffffffffffffffffffffffffffffffffffffff021916908373ffffffffffffffffffffffffffffffffffffffff16021790555061060f806100656000396000f3fe608060405260043610610062576000357c0100000000000000000000000000000000000000000000000000000000900463ffffffff16806331dfc91b146100675780633df9d2af146101555780634780468f14610180578063a03351d1146101d1575b600080fd5b34801561007357600080fd5b506100a06004803603602081101561008a57600080fd5b81019080803590602001909291905050506102c3565b604051808473ffffffffffffffffffffffffffffffffffffffff1673ffffffffffffffffffffffffffffffffffffffff16815260200180602001838152602001828103825284818151815260200191508051906020019080838360005b838110156101185780820151818401526020810190506100fd565b50505050905090810190601f1680156101455780820380516001836020036101000a031916815260200191505b5094505050505060405180910390f35b34801561016157600080fd5b5061016a6103a5565b6040518082815260200191505060405180910390f35b34801561018c57600080fd5b506101cf600480360360208110156101a357600080fd5b81019080803573ffffffffffffffffffffffffffffffffffffffff1690602001909291905050506103ab565b005b3480156101dd57600080fd5b506102c1600480360360608110156101f457600080fd5b81019080803573ffffffffffffffffffffffffffffffffffffffff1690602001909291908035906020019064010000000081111561023157600080fd5b82018360208201111561024357600080fd5b8035906020019184600183028401116401000000008311171561026557600080fd5b91908080601f016020809104026020016040519081016040528093929190818152602001838380828437600081840152601f19601f8201169050808301925050505050505091929192908035906020019092919050505061046f565b005b60036020528060005260406000206000915090508060000160009054906101000a900473ffffffffffffffffffffffffffffffffffffffff1690806001018054600181600116156101000203166002900480601f0160208091040260200160405190810160405280929190818152602001828054600181600116156101000203166002900480156103955780601f1061036a57610100808354040283529160200191610395565b820191906000526020600020905b81548152906001019060200180831161037857829003601f168201915b5050505050908060020154905083565b60025481565b6000809054906101000a900473ffffffffffffffffffffffffffffffffffffffff1673ffffffffffffffffffffffffffffffffffffffff163373ffffffffffffffffffffffffffffffffffffffff1614151561040657600080fd5b60018190806001815401808255809150509060018203906000526020600020016000909192909190916101000a81548173ffffffffffffffffffffffffffffffffffffffff021916908373ffffffffffffffffffffffffffffffffffffffff1602179055505050565b6002600081548092919060010191905055506060604051908101604052808473ffffffffffffffffffffffffffffffffffffffff1681526020018381526020018281525060036000600254815260200190815260200160002060008201518160000160006101000a81548173ffffffffffffffffffffffffffffffffffffffff021916908373ffffffffffffffffffffffffffffffffffffffff160217905550602082015181600101908051906020019061052b92919061053e565b5060408201518160020155905050505050565b828054600181600116156101000203166002900490600052602060002090601f016020900481019282601f1061057f57805160ff19168380011785556105ad565b828001600101855582156105ad579182015b828111156105ac578251825591602001919060010190610591565b5b5090506105ba91906105be565b5090565b6105e091905b808211156105dc5760008160009055506001016105c4565b5090565b9056fea165627a7a7230582003fe82d92cbb6257824146e943c32008c0ebab44d2e000b0f0cf33002d8d20d80029",
  "source": "pragma solidity ^0.5.0;\n\ncontract main{\n\n  address goverment;\n  constructor() public{\n    goverment = msg.sender;\n  }\n\n  address[] private doctors;\n\n  struct prescription {\n    address emmiter;\n    string medication;\n    uint dose;\n  }\n\n  uint public prescriptionId = 0;\n  mapping (uint => prescription) public prescriptions;\n\n  function addCounter (address _doctor, string memory _medication, uint _dose) public{\n    prescriptionId++;\n    prescriptions[prescriptionId] = prescription(_doctor, _medication, _dose);\n\n  }\n\n  function addDoctor (address _doctor) public{\n    require(msg.sender == goverment);\n    doctors.push(_doctor);\n  }\n}\n",
  "sourcePath": "/home/skamy/proyects/Smart-Prescription/contracts/main.sol",
  "compiler": {
    "name": "solc",
    "version": "0.5.0+commit.1d4f565a.Emscripten.clang"
  },
  "schemaVersion": "3.0.1",
  "updatedAt": "2019-01-14T22:07:48.870Z",
  "devdoc": {
    "methods": {}
  },
  "userdoc": {
    "methods": {}
  }
}