{
  "contractName": "main",
  "abi": [
    {
      "constant": true,
      "inputs": [
        {
          "name": "",
          "type": "uint256"
        }
      ],
      "name": "prescriptions",
      "outputs": [
        {
          "name": "emmiter",
          "type": "address"
        },
        {
          "name": "medication",
          "type": "string"
        },
        {
          "name": "dose",
          "type": "uint256"
        }
      ],
      "payable": false,
      "stateMutability": "view",
      "type": "function",
      "signature": "0x31dfc91b"
    },
    {
      "constant": true,
      "inputs": [],
      "name": "prescriptionId",
      "outputs": [
        {
          "name": "",
          "type": "uint256"
        }
      ],
      "payable": false,
      "stateMutability": "view",
      "type": "function",
      "signature": "0x3df9d2af"
    },
    {
      "constant": false,
      "inputs": [
        {
          "name": "_medication",
          "type": "string"
        },
        {
          "name": "_dose",
          "type": "uint256"
        }
      ],
      "name": "addCounter",
      "outputs": [],
      "payable": false,
      "stateMutability": "nonpayable",
      "type": "function",
      "signature": "0x81c78786"
    }
  ],
  "bytecode": "0x6080604052336000806101000a81548173ffffffffffffffffffffffffffffffffffffffff021916908373ffffffffffffffffffffffffffffffffffffffff160217905550600060015534801561005557600080fd5b506104ef806100656000396000f3fe608060405260043610610057576000357c0100000000000000000000000000000000000000000000000000000000900463ffffffff16806331dfc91b1461005c5780633df9d2af1461014a57806381c7878614610175575b600080fd5b34801561006857600080fd5b506100956004803603602081101561007f57600080fd5b8101908080359060200190929190505050610247565b604051808473ffffffffffffffffffffffffffffffffffffffff1673ffffffffffffffffffffffffffffffffffffffff16815260200180602001838152602001828103825284818151815260200191508051906020019080838360005b8381101561010d5780820151818401526020810190506100f2565b50505050905090810190601f16801561013a5780820380516001836020036101000a031916815260200191505b5094505050505060405180910390f35b34801561015657600080fd5b5061015f610329565b6040518082815260200191505060405180910390f35b34801561018157600080fd5b506102456004803603604081101561019857600080fd5b81019080803590602001906401000000008111156101b557600080fd5b8201836020820111156101c757600080fd5b803590602001918460018302840111640100000000831117156101e957600080fd5b91908080601f016020809104026020016040519081016040528093929190818152602001838380828437600081840152601f19601f8201169050808301925050505050505091929192908035906020019092919050505061032f565b005b60026020528060005260406000206000915090508060000160009054906101000a900473ffffffffffffffffffffffffffffffffffffffff1690806001018054600181600116156101000203166002900480601f0160208091040260200160405190810160405280929190818152602001828054600181600116156101000203166002900480156103195780601f106102ee57610100808354040283529160200191610319565b820191906000526020600020905b8154815290600101906020018083116102fc57829003601f168201915b5050505050908060020154905083565b60015481565b6001600081548092919060010191905055506060604051908101604052806000809054906101000a900473ffffffffffffffffffffffffffffffffffffffff1673ffffffffffffffffffffffffffffffffffffffff1681526020018381526020018281525060026000600154815260200190815260200160002060008201518160000160006101000a81548173ffffffffffffffffffffffffffffffffffffffff021916908373ffffffffffffffffffffffffffffffffffffffff160217905550602082015181600101908051906020019061040c92919061041e565b50604082015181600201559050505050565b828054600181600116156101000203166002900490600052602060002090601f016020900481019282601f1061045f57805160ff191683800117855561048d565b8280016001018555821561048d579182015b8281111561048c578251825591602001919060010190610471565b5b50905061049a919061049e565b5090565b6104c091905b808211156104bc5760008160009055506001016104a4565b5090565b9056fea165627a7a7230582088586b350b7a1ee2ef6b3a69bcac5a6211e3834440d1d04597463bd311d5fb520029",
  "source": "pragma solidity ^0.5.0;\n\ncontract main{\n\n  address doctor = msg.sender;\n\n  struct prescription {\n    address emmiter;\n    string medication;\n    uint dose;\n  }\n\n  uint public prescriptionId = 0;\n  mapping (uint => prescription) public prescriptions;\n\n  function addCounter (string memory _medication, uint _dose) public{\n    prescriptionId++;\n    prescriptions[prescriptionId] = prescription(doctor, _medication, _dose);\n\n  }\n\n}\n",
  "sourcePath": "/home/skamy/proyects/Smart-Prescription/contracts/main.sol",
  "compiler": {
    "name": "solc",
    "version": "0.5.0+commit.1d4f565a.Emscripten.clang"
  },
  "schemaVersion": "3.0.1",
  "updatedAt": "2019-01-14T20:51:22.321Z",
  "devdoc": {
    "methods": {}
  },
  "userdoc": {
    "methods": {}
  }
}