{
  "contractName": "main",
  "abi": [
    {
      "constant": true,
      "inputs": [
        {
          "name": "interfaceId",
          "type": "bytes4"
        }
      ],
      "name": "supportsInterface",
      "outputs": [
        {
          "name": "",
          "type": "bool"
        }
      ],
      "payable": false,
      "stateMutability": "view",
      "type": "function",
      "signature": "0x01ffc9a7"
    },
    {
      "constant": true,
      "inputs": [
        {
          "name": "tokenId",
          "type": "uint256"
        }
      ],
      "name": "getApproved",
      "outputs": [
        {
          "name": "",
          "type": "address"
        }
      ],
      "payable": false,
      "stateMutability": "view",
      "type": "function",
      "signature": "0x081812fc"
    },
    {
      "constant": false,
      "inputs": [
        {
          "name": "to",
          "type": "address"
        },
        {
          "name": "tokenId",
          "type": "uint256"
        }
      ],
      "name": "approve",
      "outputs": [],
      "payable": false,
      "stateMutability": "nonpayable",
      "type": "function",
      "signature": "0x095ea7b3"
    },
    {
      "constant": false,
      "inputs": [
        {
          "name": "from",
          "type": "address"
        },
        {
          "name": "to",
          "type": "address"
        },
        {
          "name": "tokenId",
          "type": "uint256"
        }
      ],
      "name": "transferFrom",
      "outputs": [],
      "payable": false,
      "stateMutability": "nonpayable",
      "type": "function",
      "signature": "0x23b872dd"
    },
    {
      "constant": true,
      "inputs": [
        {
          "name": "",
          "type": "uint256"
        }
      ],
      "name": "prescriptions",
      "outputs": [
        {
          "name": "emmiter",
          "type": "address"
        },
        {
          "name": "medication",
          "type": "string"
        },
        {
          "name": "dose",
          "type": "uint256"
        },
        {
          "name": "refill",
          "type": "uint256"
        }
      ],
      "payable": false,
      "stateMutability": "view",
      "type": "function",
      "signature": "0x31dfc91b"
    },
    {
      "constant": true,
      "inputs": [],
      "name": "prescriptionId",
      "outputs": [
        {
          "name": "",
          "type": "uint256"
        }
      ],
      "payable": false,
      "stateMutability": "view",
      "type": "function",
      "signature": "0x3df9d2af"
    },
    {
      "constant": false,
      "inputs": [
        {
          "name": "from",
          "type": "address"
        },
        {
          "name": "to",
          "type": "address"
        },
        {
          "name": "tokenId",
          "type": "uint256"
        }
      ],
      "name": "safeTransferFrom",
      "outputs": [],
      "payable": false,
      "stateMutability": "nonpayable",
      "type": "function",
      "signature": "0x42842e0e"
    },
    {
      "constant": true,
      "inputs": [
        {
          "name": "tokenId",
          "type": "uint256"
        }
      ],
      "name": "ownerOf",
      "outputs": [
        {
          "name": "",
          "type": "address"
        }
      ],
      "payable": false,
      "stateMutability": "view",
      "type": "function",
      "signature": "0x6352211e"
    },
    {
      "constant": true,
      "inputs": [
        {
          "name": "owner",
          "type": "address"
        }
      ],
      "name": "balanceOf",
      "outputs": [
        {
          "name": "",
          "type": "uint256"
        }
      ],
      "payable": false,
      "stateMutability": "view",
      "type": "function",
      "signature": "0x70a08231"
    },
    {
      "constant": true,
      "inputs": [
        {
          "name": "",
          "type": "address"
        }
      ],
      "name": "pharmacies",
      "outputs": [
        {
          "name": "",
          "type": "bool"
        }
      ],
      "payable": false,
      "stateMutability": "view",
      "type": "function",
      "signature": "0x76fe8830"
    },
    {
      "constant": false,
      "inputs": [
        {
          "name": "to",
          "type": "address"
        },
        {
          "name": "approved",
          "type": "bool"
        }
      ],
      "name": "setApprovalForAll",
      "outputs": [],
      "payable": false,
      "stateMutability": "nonpayable",
      "type": "function",
      "signature": "0xa22cb465"
    },
    {
      "constant": true,
      "inputs": [
        {
          "name": "",
          "type": "address"
        }
      ],
      "name": "doctors",
      "outputs": [
        {
          "name": "",
          "type": "bool"
        }
      ],
      "payable": false,
      "stateMutability": "view",
      "type": "function",
      "signature": "0xa9583c22"
    },
    {
      "constant": false,
      "inputs": [
        {
          "name": "from",
          "type": "address"
        },
        {
          "name": "to",
          "type": "address"
        },
        {
          "name": "tokenId",
          "type": "uint256"
        },
        {
          "name": "_data",
          "type": "bytes"
        }
      ],
      "name": "safeTransferFrom",
      "outputs": [],
      "payable": false,
      "stateMutability": "nonpayable",
      "type": "function",
      "signature": "0xb88d4fde"
    },
    {
      "constant": true,
      "inputs": [
        {
          "name": "owner",
          "type": "address"
        },
        {
          "name": "operator",
          "type": "address"
        }
      ],
      "name": "isApprovedForAll",
      "outputs": [
        {
          "name": "",
          "type": "bool"
        }
      ],
      "payable": false,
      "stateMutability": "view",
      "type": "function",
      "signature": "0xe985e9c5"
    },
    {
      "inputs": [],
      "payable": false,
      "stateMutability": "nonpayable",
      "type": "constructor",
      "signature": "constructor"
    },
    {
      "anonymous": false,
      "inputs": [
        {
          "indexed": true,
          "name": "from",
          "type": "address"
        },
        {
          "indexed": true,
          "name": "to",
          "type": "address"
        },
        {
          "indexed": true,
          "name": "tokenId",
          "type": "uint256"
        }
      ],
      "name": "Transfer",
      "type": "event",
      "signature": "0xddf252ad1be2c89b69c2b068fc378daa952ba7f163c4a11628f55a4df523b3ef"
    },
    {
      "anonymous": false,
      "inputs": [
        {
          "indexed": true,
          "name": "owner",
          "type": "address"
        },
        {
          "indexed": true,
          "name": "approved",
          "type": "address"
        },
        {
          "indexed": true,
          "name": "tokenId",
          "type": "uint256"
        }
      ],
      "name": "Approval",
      "type": "event",
      "signature": "0x8c5be1e5ebec7d5bd14f71427d1e84f3dd0314c0f7b2291e5b200ac8c7c3b925"
    },
    {
      "anonymous": false,
      "inputs": [
        {
          "indexed": true,
          "name": "owner",
          "type": "address"
        },
        {
          "indexed": true,
          "name": "operator",
          "type": "address"
        },
        {
          "indexed": false,
          "name": "approved",
          "type": "bool"
        }
      ],
      "name": "ApprovalForAll",
      "type": "event",
      "signature": "0x17307eab39ab6107e8899845ad3d59bd9653f200f220920489ca2b5937696c31"
    },
    {
      "constant": false,
      "inputs": [
        {
          "name": "_doctor",
          "type": "address"
        }
      ],
      "name": "addDoctor",
      "outputs": [],
      "payable": false,
      "stateMutability": "nonpayable",
      "type": "function",
      "signature": "0x4780468f"
    },
    {
      "constant": false,
      "inputs": [
        {
          "name": "_pharmacy",
          "type": "address"
        }
      ],
      "name": "addPharmacy",
      "outputs": [],
      "payable": false,
      "stateMutability": "nonpayable",
      "type": "function",
      "signature": "0xafd675f8"
    },
    {
      "constant": true,
      "inputs": [
        {
          "name": "_doctor",
          "type": "address"
        }
      ],
      "name": "seeDoctor",
      "outputs": [
        {
          "name": "",
          "type": "bool"
        }
      ],
      "payable": false,
      "stateMutability": "view",
      "type": "function",
      "signature": "0x4b97b4ae"
    },
    {
      "constant": true,
      "inputs": [
        {
          "name": "_pharmacy",
          "type": "address"
        }
      ],
      "name": "seePharmacy",
      "outputs": [
        {
          "name": "",
          "type": "bool"
        }
      ],
      "payable": false,
      "stateMutability": "view",
      "type": "function",
      "signature": "0xc286df1d"
    },
    {
      "constant": false,
      "inputs": [
        {
          "name": "_patient",
          "type": "address"
        },
        {
          "name": "_doctor",
          "type": "address"
        },
        {
          "name": "_medication",
          "type": "string"
        },
        {
          "name": "_dose",
          "type": "uint256"
        },
        {
          "name": "_refill",
          "type": "uint256"
        }
      ],
      "name": "addPrescription",
      "outputs": [],
      "payable": false,
      "stateMutability": "nonpayable",
      "type": "function",
      "signature": "0x72fac7bc"
    },
    {
      "constant": false,
      "inputs": [
        {
          "name": "_prescriptionId",
          "type": "uint256"
        },
        {
          "name": "_pharmacy",
          "type": "address"
        }
      ],
      "name": "giveDrug",
      "outputs": [],
      "payable": false,
      "stateMutability": "nonpayable",
      "type": "function",
      "signature": "0x54b3b5db"
    }
  ],
  "bytecode": "0x608060405234801561001057600080fd5b5061004c6301ffc9a77c0100000000000000000000000000000000000000000000000000000000026100cd640100000000026401000000009004565b6100876380ac58cd7c0100000000000000000000000000000000000000000000000000000000026100cd640100000000026401000000009004565b33600560006101000a81548173ffffffffffffffffffffffffffffffffffffffff021916908373ffffffffffffffffffffffffffffffffffffffff16021790555061018a565b63ffffffff7c010000000000000000000000000000000000000000000000000000000002817bffffffffffffffffffffffffffffffffffffffffffffffffffffffff19161415151561011e57600080fd5b6001600080837bffffffffffffffffffffffffffffffffffffffffffffffffffffffff19167bffffffffffffffffffffffffffffffffffffffffffffffffffffffff1916815260200190815260200160002060006101000a81548160ff02191690831515021790555050565b611fb4806200019a6000396000f3fe608060405260043610610112576000357c0100000000000000000000000000000000000000000000000000000000900463ffffffff16806301ffc9a714610117578063081812fc14610189578063095ea7b31461020457806323b872dd1461025f57806331dfc91b146102da5780633df9d2af146103cf57806342842e0e146103fa5780634780468f146104755780634b97b4ae146104c657806354b3b5db1461052f5780636352211e1461058a57806370a082311461060557806372fac7bc1461066a57806376fe883014610786578063a22cb465146107ef578063a9583c221461084c578063afd675f8146108b5578063b88d4fde14610906578063c286df1d14610a18578063e985e9c514610a81575b600080fd5b34801561012357600080fd5b5061016f6004803603602081101561013a57600080fd5b8101908080357bffffffffffffffffffffffffffffffffffffffffffffffffffffffff19169060200190929190505050610b0a565b604051808215151515815260200191505060405180910390f35b34801561019557600080fd5b506101c2600480360360208110156101ac57600080fd5b8101908080359060200190929190505050610b71565b604051808273ffffffffffffffffffffffffffffffffffffffff1673ffffffffffffffffffffffffffffffffffffffff16815260200191505060405180910390f35b34801561021057600080fd5b5061025d6004803603604081101561022757600080fd5b81019080803573ffffffffffffffffffffffffffffffffffffffff16906020019092919080359060200190929190505050610bc2565b005b34801561026b57600080fd5b506102d86004803603606081101561028257600080fd5b81019080803573ffffffffffffffffffffffffffffffffffffffff169060200190929190803573ffffffffffffffffffffffffffffffffffffffff16906020019092919080359060200190929190505050610d07565b005b3480156102e657600080fd5b50610313600480360360208110156102fd57600080fd5b8101908080359060200190929190505050610d2c565b604051808573ffffffffffffffffffffffffffffffffffffffff1673ffffffffffffffffffffffffffffffffffffffff16815260200180602001848152602001838152602001828103825285818151815260200191508051906020019080838360005b83811015610391578082015181840152602081019050610376565b50505050905090810190601f1680156103be5780820380516001836020036101000a031916815260200191505b509550505050505060405180910390f35b3480156103db57600080fd5b506103e4610e14565b6040518082815260200191505060405180910390f35b34801561040657600080fd5b506104736004803603606081101561041d57600080fd5b81019080803573ffffffffffffffffffffffffffffffffffffffff169060200190929190803573ffffffffffffffffffffffffffffffffffffffff16906020019092919080359060200190929190505050610e1a565b005b34801561048157600080fd5b506104c46004803603602081101561049857600080fd5b81019080803573ffffffffffffffffffffffffffffffffffffffff169060200190929190505050610e3b565b005b3480156104d257600080fd5b50610515600480360360208110156104e957600080fd5b81019080803573ffffffffffffffffffffffffffffffffffffffff169060200190929190505050610ef2565b604051808215151515815260200191505060405180910390f35b34801561053b57600080fd5b506105886004803603604081101561055257600080fd5b8101908080359060200190929190803573ffffffffffffffffffffffffffffffffffffffff169060200190929190505050610f48565b005b34801561059657600080fd5b506105c3600480360360208110156105ad57600080fd5b81019080803590602001909291905050506110a5565b604051808273ffffffffffffffffffffffffffffffffffffffff1673ffffffffffffffffffffffffffffffffffffffff16815260200191505060405180910390f35b34801561061157600080fd5b506106546004803603602081101561062857600080fd5b81019080803573ffffffffffffffffffffffffffffffffffffffff169060200190929190505050611123565b6040518082815260200191505060405180910390f35b34801561067657600080fd5b50610784600480360360a081101561068d57600080fd5b81019080803573ffffffffffffffffffffffffffffffffffffffff169060200190929190803573ffffffffffffffffffffffffffffffffffffffff169060200190929190803590602001906401000000008111156106ea57600080fd5b8201836020820111156106fc57600080fd5b8035906020019184600183028401116401000000008311171561071e57600080fd5b91908080601f016020809104026020016040519081016040528093929190818152602001838380828437600081840152601f19601f82011690508083019250505050505050919291929080359060200190929190803590602001909291905050506111a7565b005b34801561079257600080fd5b506107d5600480360360208110156107a957600080fd5b81019080803573ffffffffffffffffffffffffffffffffffffffff169060200190929190505050611318565b604051808215151515815260200191505060405180910390f35b3480156107fb57600080fd5b5061084a6004803603604081101561081257600080fd5b81019080803573ffffffffffffffffffffffffffffffffffffffff169060200190929190803515159060200190929190505050611338565b005b34801561085857600080fd5b5061089b6004803603602081101561086f57600080fd5b81019080803573ffffffffffffffffffffffffffffffffffffffff169060200190929190505050611474565b604051808215151515815260200191505060405180910390f35b3480156108c157600080fd5b50610904600480360360208110156108d857600080fd5b81019080803573ffffffffffffffffffffffffffffffffffffffff169060200190929190505050611494565b005b34801561091257600080fd5b50610a166004803603608081101561092957600080fd5b81019080803573ffffffffffffffffffffffffffffffffffffffff169060200190929190803573ffffffffffffffffffffffffffffffffffffffff169060200190929190803590602001909291908035906020019064010000000081111561099057600080fd5b8201836020820111156109a257600080fd5b803590602001918460018302840111640100000000831117156109c457600080fd5b91908080601f016020809104026020016040519081016040528093929190818152602001838380828437600081840152601f19601f82011690508083019250505050505050919291929050505061154b565b005b348015610a2457600080fd5b50610a6760048036036020811015610a3b57600080fd5b81019080803573ffffffffffffffffffffffffffffffffffffffff169060200190929190505050611573565b604051808215151515815260200191505060405180910390f35b348015610a8d57600080fd5b50610af060048036036040811015610aa457600080fd5b81019080803573ffffffffffffffffffffffffffffffffffffffff169060200190929190803573ffffffffffffffffffffffffffffffffffffffff1690602001909291905050506115c9565b604051808215151515815260200191505060405180910390f35b6000806000837bffffffffffffffffffffffffffffffffffffffffffffffffffffffff19167bffffffffffffffffffffffffffffffffffffffffffffffffffffffff1916815260200190815260200160002060009054906101000a900460ff169050919050565b6000610b7c8261165d565b1515610b8757600080fd5b6002600083815260200190815260200160002060009054906101000a900473ffffffffffffffffffffffffffffffffffffffff169050919050565b6000610bcd826110a5565b90508073ffffffffffffffffffffffffffffffffffffffff168373ffffffffffffffffffffffffffffffffffffffff1614151515610c0a57600080fd5b8073ffffffffffffffffffffffffffffffffffffffff163373ffffffffffffffffffffffffffffffffffffffff161480610c4a5750610c4981336115c9565b5b1515610c5557600080fd5b826002600084815260200190815260200160002060006101000a81548173ffffffffffffffffffffffffffffffffffffffff021916908373ffffffffffffffffffffffffffffffffffffffff160217905550818373ffffffffffffffffffffffffffffffffffffffff168273ffffffffffffffffffffffffffffffffffffffff167f8c5be1e5ebec7d5bd14f71427d1e84f3dd0314c0f7b2291e5b200ac8c7c3b92560405160405180910390a4505050565b610d1133826116cf565b1515610d1c57600080fd5b610d27838383611764565b505050565b60076020528060005260406000206000915090508060000160009054906101000a900473ffffffffffffffffffffffffffffffffffffffff1690806001018054600181600116156101000203166002900480601f016020809104026020016040519081016040528092919081815260200182805460018160011615610100020316600290048015610dfe5780601f10610dd357610100808354040283529160200191610dfe565b820191906000526020600020905b815481529060010190602001808311610de157829003601f168201915b5050505050908060020154908060030154905084565b60065481565b610e36838383602060405190810160405280600081525061154b565b505050565b600560009054906101000a900473ffffffffffffffffffffffffffffffffffffffff1673ffffffffffffffffffffffffffffffffffffffff163373ffffffffffffffffffffffffffffffffffffffff16141515610e9757600080fd5b6001600960008373ffffffffffffffffffffffffffffffffffffffff1673ffffffffffffffffffffffffffffffffffffffff16815260200190815260200160002060006101000a81548160ff02191690831515021790555050565b6000600960008373ffffffffffffffffffffffffffffffffffffffff1673ffffffffffffffffffffffffffffffffffffffff16815260200190815260200160002060009054906101000a900460ff169050919050565b60011515610f5582611573565b1515141515610ff2576040517f08c379a000000000000000000000000000000000000000000000000000000000815260040180806020018281038252602e8152602001807f4f4e4c5920524547495354455220504841524d41435920414e44204d4f44494681526020017f5920505245534352495054494f4e00000000000000000000000000000000000081525060400191505060405180910390fd5b60006007600084815260200190815260200160002060030154905060008114156110785760076000848152602001908152602001600020600080820160006101000a81549073ffffffffffffffffffffffffffffffffffffffff02191690556001820160006110619190611e9b565b6002820160009055600382016000905550506110a0565b6007600084815260200190815260200160002060030160008154809291906001900391905055505b505050565b6000806001600084815260200190815260200160002060009054906101000a900473ffffffffffffffffffffffffffffffffffffffff169050600073ffffffffffffffffffffffffffffffffffffffff168173ffffffffffffffffffffffffffffffffffffffff161415151561111a57600080fd5b80915050919050565b60008073ffffffffffffffffffffffffffffffffffffffff168273ffffffffffffffffffffffffffffffffffffffff161415151561116057600080fd5b600360008373ffffffffffffffffffffffffffffffffffffffff1673ffffffffffffffffffffffffffffffffffffffff168152602001908152602001600020549050919050565b600115156111b485610ef2565b151514151561122b576040517f08c379a000000000000000000000000000000000000000000000000000000000815260040180806020018281038252601a8152602001807f4f4e4c5920444f43544f52532043414e2050524553435249424500000000000081525060200191505060405180910390fd5b6006600081548092919060010191905055506080604051908101604052808573ffffffffffffffffffffffffffffffffffffffff1681526020018481526020018381526020018281525060076000600654815260200190815260200160002060008201518160000160006101000a81548173ffffffffffffffffffffffffffffffffffffffff021916908373ffffffffffffffffffffffffffffffffffffffff16021790555060208201518160010190805190602001906112ed929190611ee3565b506040820151816002015560608201518160030155905050611311856006546119c9565b5050505050565b60086020528060005260406000206000915054906101000a900460ff1681565b3373ffffffffffffffffffffffffffffffffffffffff168273ffffffffffffffffffffffffffffffffffffffff161415151561137357600080fd5b80600460003373ffffffffffffffffffffffffffffffffffffffff1673ffffffffffffffffffffffffffffffffffffffff16815260200190815260200160002060008473ffffffffffffffffffffffffffffffffffffffff1673ffffffffffffffffffffffffffffffffffffffff16815260200190815260200160002060006101000a81548160ff0219169083151502179055508173ffffffffffffffffffffffffffffffffffffffff163373ffffffffffffffffffffffffffffffffffffffff167f17307eab39ab6107e8899845ad3d59bd9653f200f220920489ca2b5937696c3183604051808215151515815260200191505060405180910390a35050565b60096020528060005260406000206000915054906101000a900460ff1681565b600560009054906101000a900473ffffffffffffffffffffffffffffffffffffffff1673ffffffffffffffffffffffffffffffffffffffff163373ffffffffffffffffffffffffffffffffffffffff161415156114f057600080fd5b6001600860008373ffffffffffffffffffffffffffffffffffffffff1673ffffffffffffffffffffffffffffffffffffffff16815260200190815260200160002060006101000a81548160ff02191690831515021790555050565b611556848484610d07565b61156284848484611b62565b151561156d57600080fd5b50505050565b6000600860008373ffffffffffffffffffffffffffffffffffffffff1673ffffffffffffffffffffffffffffffffffffffff16815260200190815260200160002060009054906101000a900460ff169050919050565b6000600460008473ffffffffffffffffffffffffffffffffffffffff1673ffffffffffffffffffffffffffffffffffffffff16815260200190815260200160002060008373ffffffffffffffffffffffffffffffffffffffff1673ffffffffffffffffffffffffffffffffffffffff16815260200190815260200160002060009054906101000a900460ff16905092915050565b6000806001600084815260200190815260200160002060009054906101000a900473ffffffffffffffffffffffffffffffffffffffff169050600073ffffffffffffffffffffffffffffffffffffffff168173ffffffffffffffffffffffffffffffffffffffff161415915050919050565b6000806116db836110a5565b90508073ffffffffffffffffffffffffffffffffffffffff168473ffffffffffffffffffffffffffffffffffffffff16148061174a57508373ffffffffffffffffffffffffffffffffffffffff1661173284610b71565b73ffffffffffffffffffffffffffffffffffffffff16145b8061175b575061175a81856115c9565b5b91505092915050565b8273ffffffffffffffffffffffffffffffffffffffff16611784826110a5565b73ffffffffffffffffffffffffffffffffffffffff161415156117a657600080fd5b600073ffffffffffffffffffffffffffffffffffffffff168273ffffffffffffffffffffffffffffffffffffffff16141515156117e257600080fd5b6117eb81611d85565b61183e6001600360008673ffffffffffffffffffffffffffffffffffffffff1673ffffffffffffffffffffffffffffffffffffffff16815260200190815260200160002054611e4590919063ffffffff16565b600360008573ffffffffffffffffffffffffffffffffffffffff1673ffffffffffffffffffffffffffffffffffffffff168152602001908152602001600020819055506118d46001600360008573ffffffffffffffffffffffffffffffffffffffff1673ffffffffffffffffffffffffffffffffffffffff16815260200190815260200160002054611e6790919063ffffffff16565b600360008473ffffffffffffffffffffffffffffffffffffffff1673ffffffffffffffffffffffffffffffffffffffff16815260200190815260200160002081905550816001600083815260200190815260200160002060006101000a81548173ffffffffffffffffffffffffffffffffffffffff021916908373ffffffffffffffffffffffffffffffffffffffff160217905550808273ffffffffffffffffffffffffffffffffffffffff168473ffffffffffffffffffffffffffffffffffffffff167fddf252ad1be2c89b69c2b068fc378daa952ba7f163c4a11628f55a4df523b3ef60405160405180910390a4505050565b600073ffffffffffffffffffffffffffffffffffffffff168273ffffffffffffffffffffffffffffffffffffffff1614151515611a0557600080fd5b611a0e8161165d565b151515611a1a57600080fd5b816001600083815260200190815260200160002060006101000a81548173ffffffffffffffffffffffffffffffffffffffff021916908373ffffffffffffffffffffffffffffffffffffffff160217905550611abf6001600360008573ffffffffffffffffffffffffffffffffffffffff1673ffffffffffffffffffffffffffffffffffffffff16815260200190815260200160002054611e6790919063ffffffff16565b600360008473ffffffffffffffffffffffffffffffffffffffff1673ffffffffffffffffffffffffffffffffffffffff16815260200190815260200160002081905550808273ffffffffffffffffffffffffffffffffffffffff16600073ffffffffffffffffffffffffffffffffffffffff167fddf252ad1be2c89b69c2b068fc378daa952ba7f163c4a11628f55a4df523b3ef60405160405180910390a45050565b6000611b838473ffffffffffffffffffffffffffffffffffffffff16611e88565b1515611b925760019050611d7d565b60008473ffffffffffffffffffffffffffffffffffffffff1663150b7a02338887876040518563ffffffff167c0100000000000000000000000000000000000000000000000000000000028152600401808573ffffffffffffffffffffffffffffffffffffffff1673ffffffffffffffffffffffffffffffffffffffff1681526020018473ffffffffffffffffffffffffffffffffffffffff1673ffffffffffffffffffffffffffffffffffffffff16815260200183815260200180602001828103825283818151815260200191508051906020019080838360005b83811015611c89578082015181840152602081019050611c6e565b50505050905090810190601f168015611cb65780820380516001836020036101000a031916815260200191505b5095505050505050602060405180830381600087803b158015611cd857600080fd5b505af1158015611cec573d6000803e3d6000fd5b505050506040513d6020811015611d0257600080fd5b8101908080519060200190929190505050905063150b7a027c0100000000000000000000000000000000000000000000000000000000027bffffffffffffffffffffffffffffffffffffffffffffffffffffffff1916817bffffffffffffffffffffffffffffffffffffffffffffffffffffffff1916149150505b949350505050565b600073ffffffffffffffffffffffffffffffffffffffff166002600083815260200190815260200160002060009054906101000a900473ffffffffffffffffffffffffffffffffffffffff1673ffffffffffffffffffffffffffffffffffffffff16141515611e425760006002600083815260200190815260200160002060006101000a81548173ffffffffffffffffffffffffffffffffffffffff021916908373ffffffffffffffffffffffffffffffffffffffff1602179055505b50565b6000828211151515611e5657600080fd5b600082840390508091505092915050565b6000808284019050838110151515611e7e57600080fd5b8091505092915050565b600080823b905060008111915050919050565b50805460018160011615610100020316600290046000825580601f10611ec15750611ee0565b601f016020900490600052602060002090810190611edf9190611f63565b5b50565b828054600181600116156101000203166002900490600052602060002090601f016020900481019282601f10611f2457805160ff1916838001178555611f52565b82800160010185558215611f52579182015b82811115611f51578251825591602001919060010190611f36565b5b509050611f5f9190611f63565b5090565b611f8591905b80821115611f81576000816000905550600101611f69565b5090565b9056fea165627a7a723058200d3e3a8b301ea68155e12bdb86edc7c22edf43eb21fd4d40c7592950539ff6b90029",
  "source": "pragma solidity ^0.5.0;\n\nimport 'openzeppelin-solidity/contracts/token/ERC721/ERC721.sol';\n/**\n * @title Smart-Presciptions emulated with smart contrats\n * @dev see https://github.com/scammi/Smart-Prescription\n */\ncontract main is ERC721{\n\n//sudo account\n  address goverment;\n\n//ID prescription\n  uint public prescriptionId;\n\n//Struct emulating a pharmaceutical prescription\n  struct prescription {\n    address emmiter;\n    string medication;\n    uint dose;\n    uint refill;\n  }\n\n//Mapping from token id to the prescription struct\n  mapping (uint => prescription) public prescriptions;\n\n//Mapping from pharmacies address to its permission\n  mapping (address => bool) public pharmacies;\n\n//Mapping from doctors address to its permission\n  mapping (address => bool) public doctors;\n\n//Owner of the contract has administration privileges\n  constructor() public{\n    goverment = msg.sender;\n  }\n\n/**\n*@dev sudo account gives doctors address permission to mint prescriptions tokens\n*@param _doctor address belongs to the doctor to give mint rights\n*/\n  function addDoctor (address _doctor) public{\n    require(msg.sender == goverment);\n\n    doctors[_doctor] = true;\n  }\n\n/**\n*@dev sudo account gives pharmacies permission to modify tokens\n*@param _pharmacy address belongs to the pharmacy to give rights to\n*/\n  function addPharmacy (address _pharmacy) public{\n    require(msg.sender == goverment);\n\n    pharmacies[_pharmacy] = true;\n  }\n\n/**\n*@dev returns wheter an address has been given permission\n*@param _doctor addres to be evaluated\n*/\n  function seeDoctor (address _doctor) public view returns(bool){\n    return doctors[_doctor];\n  }\n\n/**\n*@dev returns wheter an address has been given permission\n*@param _pharmacy addres to be evaluated\n*/\n  function seePharmacy (address _pharmacy) public view returns (bool){\n    return pharmacies[_pharmacy];\n  }\n\n/**\n*@dev creates a new prescription construct which is added to prescription\n*mapping using as key prescription ID\n*it first evaluates if the emmiter has permission\n*increments the prescriptionId\n*@param _doctor address emmiter\n*@param _medication string drug being prescribed\n*@param _dose uint the amount of the drug\n*@param _refill uint times the prescription is valid\n*/\n  function addPrescription (address _patient, address _doctor, string memory _medication, uint _dose, uint _refill) public{\n    require (seeDoctor(_doctor) == true, \"ONLY DOCTORS CAN PRESCRIBE\");\n\n    prescriptionId++;\n\n    prescriptions[prescriptionId] = prescription(_doctor, _medication, _dose, _refill);\n\n    _mint(_patient, prescriptionId);\n  }\n\n/**\n@dev modifies prescriptions refill variable decresing by one every time it's called\n*until it reaches 0 where the prescription will be deleted\n*pharmacies should fire this function when disposing the drug to the patient\n*the function first checks the permission of the pharmacy\n@param _prescriptionId uint the prescription struct of the drug being ask for\n@param _pharmacy address belongs to the pharmacy calling this function\n*/\nfunction giveDrug(uint _prescriptionId, address _pharmacy) public{\n  require (seePharmacy(_pharmacy) == true, \"ONLY REGISTER PHARMACY AND MODIFY PRESCRIPTION\");\n\n  uint refill = prescriptions[_prescriptionId].refill;\n    if (refill == 0){\n\n      delete (prescriptions[_prescriptionId]);\n\n    } else {\n\n      prescriptions[_prescriptionId].refill--;\n    }\n}\n\n}\n",
  "sourcePath": "/home/skamy/proyects/Smart-Prescription/contracts/main.sol",
  "compiler": {
    "name": "solc",
    "version": "0.5.0+commit.1d4f565a.Emscripten.clang"
  },
  "schemaVersion": "3.0.1",
  "updatedAt": "2019-01-17T19:27:28.152Z",
  "devdoc": {
    "details": "see https://github.com/scammi/Smart-Prescription",
    "methods": {
      "approve(address,uint256)": {
        "details": "Approves another address to transfer the given token ID The zero address indicates there is no approved address. There can only be one approved address per token at a given time. Can only be called by the token owner or an approved operator.",
        "params": {
          "to": "address to be approved for the given token ID",
          "tokenId": "uint256 ID of the token to be approved"
        }
      },
      "balanceOf(address)": {
        "details": "Gets the balance of the specified address",
        "params": {
          "owner": "address to query the balance of"
        },
        "return": "uint256 representing the amount owned by the passed address"
      },
      "getApproved(uint256)": {
        "details": "Gets the approved address for a token ID, or zero if no address set Reverts if the token ID does not exist.",
        "params": {
          "tokenId": "uint256 ID of the token to query the approval of"
        },
        "return": "address currently approved for the given token ID"
      },
      "giveDrug(uint256,address)": {
        "details": "modifies prescriptions refill variable decresing by one every time it's called ntil it reaches 0 where the prescription will be deleted harmacies should fire this function when disposing the drug to the patient he function first checks the permission of the pharmacy",
        "params": {
          "_pharmacy": "address belongs to the pharmacy calling this function",
          "_prescriptionId": "uint the prescription struct of the drug being ask for"
        }
      },
      "isApprovedForAll(address,address)": {
        "details": "Tells whether an operator is approved by a given owner",
        "params": {
          "operator": "operator address which you want to query the approval of",
          "owner": "owner address which you want to query the approval of"
        },
        "return": "bool whether the given operator is approved by the given owner"
      },
      "ownerOf(uint256)": {
        "details": "Gets the owner of the specified token ID",
        "params": {
          "tokenId": "uint256 ID of the token to query the owner of"
        },
        "return": "owner address currently marked as the owner of the given token ID"
      },
      "safeTransferFrom(address,address,uint256)": {
        "details": "Safely transfers the ownership of a given token ID to another address If the target address is a contract, it must implement `onERC721Received`, which is called upon a safe transfer, and return the magic value `bytes4(keccak256(\"onERC721Received(address,address,uint256,bytes)\"))`; otherwise, the transfer is reverted.     * Requires the msg sender to be the owner, approved, or operator",
        "params": {
          "from": "current owner of the token",
          "to": "address to receive the ownership of the given token ID",
          "tokenId": "uint256 ID of the token to be transferred"
        }
      },
      "safeTransferFrom(address,address,uint256,bytes)": {
        "details": "Safely transfers the ownership of a given token ID to another address If the target address is a contract, it must implement `onERC721Received`, which is called upon a safe transfer, and return the magic value `bytes4(keccak256(\"onERC721Received(address,address,uint256,bytes)\"))`; otherwise, the transfer is reverted. Requires the msg sender to be the owner, approved, or operator",
        "params": {
          "_data": "bytes data to send along with a safe transfer check",
          "from": "current owner of the token",
          "to": "address to receive the ownership of the given token ID",
          "tokenId": "uint256 ID of the token to be transferred"
        }
      },
      "setApprovalForAll(address,bool)": {
        "details": "Sets or unsets the approval of a given operator An operator is allowed to transfer all tokens of the sender on their behalf",
        "params": {
          "approved": "representing the status of the approval to be set",
          "to": "operator address to set the approval"
        }
      },
      "supportsInterface(bytes4)": {
        "details": "implement supportsInterface(bytes4) using a lookup table"
      },
      "transferFrom(address,address,uint256)": {
        "details": "Transfers the ownership of a given token ID to another address Usage of this method is discouraged, use `safeTransferFrom` whenever possible Requires the msg sender to be the owner, approved, or operator",
        "params": {
          "from": "current owner of the token",
          "to": "address to receive the ownership of the given token ID",
          "tokenId": "uint256 ID of the token to be transferred"
        }
      }
    },
    "title": "Smart-Presciptions emulated with smart contrats"
  },
  "userdoc": {
    "methods": {
      "addDoctor(address)": {
        "notice": "dev sudo account gives doctors address permission to mint prescriptions tokens param _doctor address belongs to the doctor to give mint rights"
      },
      "addPharmacy(address)": {
        "notice": "dev sudo account gives pharmacies permission to modify tokens param _pharmacy address belongs to the pharmacy to give rights to"
      },
      "addPrescription(address,address,string,uint256,uint256)": {
        "notice": "dev creates a new prescription construct which is added to prescription apping using as key prescription ID t first evaluates if the emmiter has permission ncrements the prescriptionId param _doctor address emmiter param _medication string drug being prescribed param _dose uint the amount of the drug param _refill uint times the prescription is valid"
      },
      "seeDoctor(address)": {
        "notice": "dev returns wheter an address has been given permission param _doctor addres to be evaluated"
      },
      "seePharmacy(address)": {
        "notice": "dev returns wheter an address has been given permission param _pharmacy addres to be evaluated"
      }
    }
  }
}